:020000040800F2
:10000000000002201D4502086D4502086D450208EA
:100010006D4502086D4502086D45020800000000AC
:100020000000000000000000000000006D45020814
:100030006D450208000000006D450208858B02082E
:100040006D4502086D4502086D4502086D450208C0
:100050006D4502086D4502086D4502086D450208B0
:100060006D4502086D4502086D4502086D450208A0
:100070006D4502086D4502086D4502086D45020890
:100080006D4502086D4502086D4502086D45020880
:100090006D4502086D4502086D450208F58B0208A2
:1000A0006D4502086D450208158C02086D45020871
:1000B0006D4502086D4502086D4502086D45020850
:1000C0006D4502086D4502086D450208C58B0208A2
:1000D0006D4502086D4502086D4502086D45020830
:1000E0006D4502086D450208958B02086D450208B2
:1000F0006D4502086D4502086D4502086D45020810
:100100006D4502086D4502086D4502086D450208FF
:100110006D4502086D4502086D4502086D450208EF
:100120006D4502086D4502083D8B02086D450208C9
:100130006D45020800000000000000006D45020847
:100140006D4502086D4502086D450208558B020891
:100150006D4502086D4502086D450208DD8B0208F9
:100160006D8B0208AD8B02086D4502086D450208D3
:100170006D4502086D450208000000000000000007
:100180006D4502086D450208253032580000000018
:100190000D0A0000253033642E2530326400000043
:1001A000253034580000000053544D333220566936
:1001B000727475616C20436F6D506F727420284BA0
:1001C00061756169204C61627329000053544D6967
:1001D00063726F656C656374726F6E696373000040
:1001E00030303030303030303030314100000000BD
:1001F00043444320436F6E666967000043444320D5
:10020000496E74657266616365000000654D504C0F
:1002100020352E3100000000444D5020656E616293
:100220006C65642E0A00000025737C25737C2564B0
:100230002072657475726E696E672025640A00000D
:100240002E2E5C4D5055393235305C636F72655CD3
:100250006D6C6C6974655C6D706C2E6300000000E1
:100260004D504C00556E61626C6520746F20616466
:100270006420666561747572652063616C6C62618F
:10028000636B20617320746F6F206D616E792077CE
:1002900065726520616C7265616479207265676959
:1002A0007374657265640A0074000000D824000845
:1002B00003000000D8240008030000000000000034
:1002C0000000000061000000402700080E00000050
:1002D000402700080E000000502700080900000019
:1002E000620000005C270008110000005C27000885
:1002F00011000000702700080C00000073000000CF
:10030000802700080B0000008C2700084600000032
:10031000702700080C00000069000000D4270008C6
:100320000C000000E4270008310000001828000835
:100330000D0000006F000000282800080C000000DD
:1003400038280008310000006C2800080D0000006B
:10035000640000007C2800080D0000008C280008C4
:1003600032000000C02800080E000000F825000838
:100370000B000000F82500080B0000000000000042
:1003800004260008040000000C26000807000000F6
:100390000700000014260008040000001C260008C6
:1003A00004000000000000002426000806000000F1
:1003B0002426000806000000080000002C26000883
:1003C0000B0000002C2600080B00000008000000B5
:1003D0003826000805000000382600080500000047
:1003E00008000000402600080A000000402600081F
:1003F0000A000000080000004C2600080D00000064
:100400004C2600080D000000000000005C260008DB
:10041000030000005C26000803000000010000004B
:10042000602600080C00000070260008080000008C
:1004300002000000000000000000000000000000BA
:1004400000000000000000007C26000804000000FE
:100450007C26000804000000030000008426000839
:100460000D000000842600080D00000004000000BC
:1004700094260008080000009426000808000000E8
:1004800000000000A026000811000000A0260008BF
:10049000110000000000000000000000000000004B
:1004A000000000000000000000000000000000004C
:1004B000000000000000000000000000000000003C
:1004C000000000000000000000000000000000002C
:1004D00000000000B426000805000000B426000853
:1004E0000500000000000000BC2600080E0000000F
:1004F000BC2600080E000000000000000000000004
:1005000000000000000000000000000000000000EB
:10051000CC26000804000000CC26000804000000DF
:1005200009000000D4260008070000001426000877
:100530000400000000000000DC26000809000000A4
:100540007C2600080400000005000000E8260008E2
:1005500012000000E826000812000000060000005B
:10056000B425000803000000B425000803000000C3
:1005700000000000FC26000809000000FC2600081E
:100580000900000000000000082700080900000022
:1005900008270008090000000000000014270008D8
:1005A0000A000000142700080A00000000000000F4
:1005B0002027000804000000202700080400000095
:1005C000080000002827000808000000282700086D
:1005D00008000000000000003427000808000000A8
:1005E000342700080800000000000000D0280008A0
:1005F000D42800080200000002000000D8280008EB
:10060000DC2800080100000002000000E0280008CB
:10061000E42800080200000002000000E8280008AA
:10062000EC2800080100000001000000F02800088C
:10063000EC2800080100000002000000E02400088F
:10064000F42800080200000002000000F82800085A
:10065000FC2800080100000002000000002900083A
:10066000042900080100000001000000082900081A
:100670000C290008020000000200000010290008F8
:1006800014290008080000000100000020290008CB
:1006900024290008010000000100000028290008AA
:1006A0002C2900080600000001000000E4240008D6
:1006B0003429000801000000020000003829000869
:1006C0003C29000801000000020000004029000849
:1006D0004429000802000000020000004829000828
:1006E0004C29000801000000020000005029000809
:1006F00054290008020000000200000058290008E8
:100700005C290008020000000200000060290008C7
:100710001428000801000000020000008C250008D9
:10072000F424000802000000020000006429000810
:1007300068290008030000000200000028260008C5
:100740006C29000802000000020000007029000867
:100750007429000802000000020000007829000847
:100760007C29000801000000020000008029000828
:100770008429000802000000020000008829000807
:100780008C290008020000000200000090290008E7
:1007900094290008010000000200000098290008C8
:1007A0002429000801000000020000009C29000824
:1007B000A02900080200000001000000A429000890
:1007C000A82900080500000001000000B029000869
:1007D000B42900080200000002000000F82600080A
:1007E000942900080100000001000000B829000859
:1007F000BC2900080100000001000000C029000819
:10080000C42900080300000001000000C8290008F6
:10081000CC2900080200000002000000D0290008D6
:10082000D429000802000000020000004C27000844
:10083000D82900080100000002000000DC2900089F
:10084000E02900080200000002000000E42900087E
:10085000E82900080100000002000000EC2900085F
:10086000F02900080300000002000000F42900083D
:10087000F82900080200000001000000FC2900081F
:10088000E82900080100000001000000E824000839
:10089000002A00080200000002000000042A0008EC
:1008A000082A000801000000030000000C2A0008CC
:1008B000102A00080200000002000000142A0008AC
:1008C000182A000803000000020000001C2A00088B
:1008D000202A00080100000002000000242A00086D
:1008E000282A00080200000002000000DC240008A2
:1008F0002C2A00080700000001000000342A00082C
:100900002C2A00080700000001000000382A000817
:100910003C2A00080800000001000000482A0008E6
:100920003C2A000808000000010000000000000050
:1009300000000000000000000000000000000000B7
:100940004FBB610567ACDD3F182D4454FB21E93FE7
:100950009BF681D20B73EF3F182D4454FB21F93FD6
:10096000E2652F227F2B7A3C075C143326A6813C5C
:10097000BDCBF07A8807703C075C143326A6913C07
:10098000FB21F93FFB2109407CD91240FB21194092
:100990007A6A1F407CD92240BBFD2540FB212940BB
:1009A0003A462C407A6A2F405C4731407CD932402D
:1009B0009C6B3440BBFD3540DB8F3740FB21394019
:1009C0001BB43A403A463C405AD83D407A6A3F40D0
:1009D0004C7E40405C4741406C1042407CD94240D4
:1009E0008CA243409C6B4440AC344540BBFD454029
:1009F000CBC64640DB8F4740EB584840FB2149407F
:100A000083F9A200444E6E00FC291500D15727003F
:100A1000DD34F50062DBC0003C9995004190430055
:100A20006351FE00BBDEAB00B761C5003A6E240027
:100A3000D24D42004906E00009EA2E001C92D10086
:100A4000EB1DFE0029B11C00E83EA700F535820031
:100A500044BB2E009CE98400B4267000417E5F00F8
:100A6000D6913900538339009CF439008B5F8400A0
:100A700028F9BD00F81F3B00DEFF97000F98050026
:100A8000112FEF000A5A8B006D1F6D00CF7E3600CC
:100A900009CB2700464FB7009E663F002DEA5F0056
:100AA000BA277500E5EBC7003D7BF100F739070079
:100AB00092528A00FB6BEA001FB15F00085D8D0057
:100AC000300356007BFC4600F0AB6B0020BCCF002F
:100AD00036F49A00E3A91D005E619100081BE60050
:100AE00085996500A0145F008D40680080D8FF00E4
:100AF00027734D0006063100CA561500C9A87300B9
:100B00007BE260006B8CC000000FC93F000F4940C2
:100B100000CB9640000FC9400053FB4000CB16416C
:100B200000ED2F41000F49410031624100537B41EC
:100B3000003A8A4100CB9641005CA34100EDAF41F1
:100B4000007EBC41000FC94100A0D5410031E24107
:100B500000C2EE410053FB4100F20342003A0A4258
:100B60000083104200CB164200141D42005C234259
:100B700000A5294200ED2F4200363642007E3C425D
:100B800000C74242000F4942A2000000F9000000E5
:100B9000830000006E0000004E00000044000000D2
:100BA0001500000029000000FC00000027000000E4
:100BB00057000000D1000000F500000034000000E4
:100BC000DD000000C0000000DB000000620000004B
:100BD00095000000990000003C0000004300000068
:100BE0009000000041000000FE00000051000000E5
:100BF00063000000AB000000DE000000BB0000004E
:100C0000C500000061000000B700000024000000E3
:100C10006E0000003A000000420000004D0000009D
:100C2000D2000000E00000000600000049000000C3
:100C30002E000000EA00000009000000D1000000C2
:100C4000920000001C000000FE0000001D000000DB
:100C5000EB0000001C000000B100000029000000B3
:100C6000A70000003E000000E80000008200000035
:100C700035000000F50000002E000000BB00000061
:100C80004400000084000000E90000009C00000017
:100C90007000000026000000B40000005F000000AB
:100CA0007E000000410000003900000091000000BB
:100CB000D60000003900000083000000530000004F
:100CC00039000000F40000009C00000084000000D7
:100CD0005F0000008B000000BD000000F900000074
:100CE000280000003B0000001F000000F80000008A
:100CF00097000000FF000000DE000000050000007B
:100D0000980000000F000000EF0000002F0000001E
:100D1000110000008B0000005A0000000A000000D3
:100D20006D0000001F0000006D0000003600000094
:100D30007E000000CF00000027000000CB00000074
:100D400009000000B70000004F000000460000004E
:100D50003F000000660000009E0000005F000000F1
:100D6000EA0000002D0000007500000027000000D0
:100D7000BA000000C7000000EB000000E500000022
:100D8000F10000007B0000003D00000007000000B3
:100D900039000000F70000008A0000005200000047
:100DA00092000000EA0000006B000000FB00000061
:100DB0005F000000B10000001F0000008D00000077
:100DC0005D00000008000000560000000300000065
:100DD0003000000046000000FC0000007B00000026
:100DE0006B000000AB000000F0000000CF0000002E
:100DF000BC000000200000009A000000F400000089
:100E0000360000001D000000A9000000E300000003
:100E100091000000610000005E000000E60000009C
:100E20001B000000080000006500000099000000A1
:100E3000850000005F00000014000000A00000001A
:100E400068000000400000008D000000FF0000006E
:100E5000D8000000800000004D000000730000007A
:100E6000270000003100000006000000060000001E
:100E70001500000056000000CA00000073000000CA
:100E8000A8000000C900000060000000E2000000AF
:100E90007B000000C00000008C0000006B00000020
:100EA0000200000003000000040000000600000033
:100EB00000000040FB21F93F000000002D44743E7B
:100EC000000000809846F83C0000006051CC783B60
:100ED00000000080831BF0390000004020257A3894
:100EE000000000802282E336000000001DF3693517
:100EF0000400000007000000090000000000C93FD6
:100F00000000F0390000DA370000A2330000842E20
:100F10000000502B0000C2270000D0220000C41F98
:100F20000000C61B000044171800002020202020CD
:100F30002020202020202020202020203030303071
:100F40003030303030303030303030300000000061
:100F50000000000000000000000000000000000091
:100F60000000000000000000000000000000000081
:100F70000000000000000000000000000000000071
:100F80000000000000000000000000000000000061
:100F90000000000000000000000000000000000051
:100FA0000000000000000000000000000000000041
:100FB00005000000190000007D0000000000000096
:100FC000000000000000F03F00000000000024408E
:100FD00000000000000059400000000000408F4069
:100FE000000000000088C34000000000006AF840D4
:100FF0000000000080842E4100000000D0126341F8
:101000000000000084D797410000000065CDCD416D
:10101000000000205FA00242000000E8764837424E
:10102000000000A2941A6D42000040E59C30A242EC
:101030000000901EC4BCD64200003426F56B0C4361
:101040000080E03779C3414300A0D8855734764308
:1010500000C84E676DC1AB43003D9160E458E14369
:10106000408CB5781DAF154450EFE2D6E41A4B44DE
:1010700092D54D06CFF08044F64AE1C7022DB54423
:10108000B49DD9794378EA440080E03779C341437D
:10109000176E05B5B5B89346F5F93FE9034F384DDE
:1010A000321D30F94877825A3CBF737FDD4F15758A
:1010B000BC89D897B2D29C3C33A7A8D523F649392E
:1010C0003DA7F444FD0FA5329D978CCF08BA5B2550
:1010D000436FAC642806C80A20202020202020204E
:1010E0002020202020202020303030303030303080
:1010F000303030303030303000000000B81100089F
:10110000413B0208713B02089D3B0208213A02085C
:101110006D3A0208C13B0208E13B0208113C02089B
:10112000313C0208513C0208FCFFFFFFB8110008E7
:10113000D93B0208093C0208293C0208493C020844
:10114000693C0208653A02088D3A02080000000076
:1011500000000000E8110008B9DD0308853D020821
:10116000B9DD0308A1390208F9390208FCFFFFFFC5
:10117000E8110008B9DD0308B9DD0308B9DD03088B
:10118000B9DD0308B9DD0308F1390208193A02088C
:10119000000000001C120008B9DD0308B9DD0308D7
:1011A000B9DD0308B9DD0308B9DD03084D390208CC
:1011B0008139020800000000B0210008C4110008B5
:1011C000E81100083955534253657269616C00009B
:1011D00031395072696E7453657269616C5265631E
:1011E000656976657200000048220008D011000889
:1011F0000000000002000000481200080200000089
:101200001C12000802040000313453657269616CDD
:1012100052656365697665720000000098220008D7
:10122000081200080000000000000000481200083A
:10123000B9DD0308853D0208B9DD0308F938020865
:101240002D39020800000000982200085012000802
:10125000355072696E74000000000000B012000882
:10126000C5420208853D02085D430208C53D0208EB
:10127000113E0208154202087D420208A5420208FA
:101280007140020839410208FCFFFFFFB01200085C
:101290009D4202080D4202083141020875420208CF
:1012A000BD420208093E0208313E0208000000006B
:1012B000B0210008BC120008E81100083134486170
:1012C00072647761726553657269616C0000000039
:1012D000696E765F73746172745F6D706C0000008C
:1012E000696E765F696E69745F6D706C00000000F6
:1012F0000000700000000024000000020003000055
:1013000000650054FFEF0000FA80000B128200011C
:10131000030C30C30E8C8CE914D5400213710F8E70
:101320003883F8833000F883258EF8833000F88303
:10133000FFFFFFFF0FFEA9D6240004001A8279A147
:101340000000003CFFFF00000010000038836FA287
:10135000003E03304000000002CAE3093E80000066
:1013600020000000000000004000000060000000BD
:10137000000C0000000C186E000006920A16C0DF78
:10138000FFFF0256FD8CD377FFE1C496E0C5BEAAED
:1013900000000000FFFF0B2B000016570000035950
:1013A0004000000000001DFA00026C1D000000005B
:1013B0003FFFDFEB003EB3B6000D227800002F3C6C
:1013C00000000000001942B5000039A20000B3651A
:1013D000D90E9FC91DCF4C343000000050000000D2
:1013E0003BB67AE80064000000C80000000000007E
:1013F000100000001000FA921000225E000D229FE3
:101400000001000000320000FF46000063D400002D
:101410001000000004D6000004CC000004CC000042
:1014200000001072000000400000000000000000FA
:101430000006000200050007000000000064000034
:10144000000000000000000500050064002000000E
:101450000000000000000000000040000000030049
:1014600000000032F8980000FF650000830F0000C4
:10147000FF9BFC00000000000000000000000000D6
:10148000000000000000000000000000000000005C
:10149000000000000000000000000000000010003C
:1014A00040000000000000060000B26A00020000D8
:1014B0000001FB830068000000D9FC007CF1FF8381
:1014C0000000000000650000006403E800640028DC
:1014D000000000250000000016A000000000100021
:1014E00000001000002F0000000001F400001000B8
:1014F00000280000FFFF4581FFFFFA720000000096
:1015000000000000004400050005BAC6004778A2AC
:1015100000000001000000000000060000000014B0
:101520000000254D002F706D000005AE000C02D0AC
:1015300000000000000000000000000000000000AB
:10154000001B000000000000000000000000000080
:10155000006400000008000000000000000000001F
:10156000000000000000000000000000000000007B
:10157000000000000000000000000000000000006B
:10158000000000000000000000000000000000005B
:10159000000000000000000000000000000000004B
:1015A000000000000000000000000000000000003B
:1015B000001B00000000000000000000000E000EF4
:1015C00000000AC70004000000000032FFFFFF9C7B
:1015D00000000B2B0000000200000001000000646E
:1015E000FFE5000000000000000000000000000017
:1015F00000000001000000000001000000000000E9
:10160000000180000001800000018000002426D33A
:101610000000000000000000000600100096003CE2
:1016200000000000000000000000000000000000BA
:101630000C0A4E68CDCF770950166759C619CE826D
:10164000000000000000000000000000000000009A
:10165000000000000000000017D784000300000015
:101660000000000000000000C7938F9D1E1B1C1986
:10167000000000000000000000000000000000006A
:101680000000000000000000020318850000400078
:101690000000000300000003000000000000000044
:1016A00040000000000000000000000000000000FA
:1016B000000000000000000000000000000000002A
:1016C000000000000000000000000000000000001A
:1016D00000000000677DDF7E72902E554CF6E68894
:1016E00000000000000000000000000000000000FA
:1016F000D8DCB4B8B0D8B9ABF3F8FAB3B7BB8E9EA8
:10170000AEF132F51BF1B4B8B08097F1A9DFDFDF9D
:10171000AADFDFDFF2AAC5CDC7A90CC92C97F1A9B2
:1017200089264666B28999A92D557DB0B08AA896BA
:10173000365676F1BAA3B4B280C0B8A89711B28376
:1017400098BAA3F0240844106418B2B9B49883F18D
:10175000A329557DBAB5B1A38393F0002850F5B203
:10176000B6AA839328547CF1B9A3829361BAA2DA12
:10177000DEDFDB819AB9AEF5606870F1DABAA2DF1C
:10178000D9BAA2FAB9A38292DB31BAA2D9BAA2F825
:10179000DF85A4D0C1BBAD83C2C5C7B8A2DFDFDF80
:1017A000BAA0DFDFDFD8D8F1B8AAB38DB4980D3571
:1017B0005DB2B6BAAF8C96198F9FA70E161EB49A5B
:1017C000B8AA872C547CBAA4B08AB691325676B2A5
:1017D0008494A4C808CDD8B8B4B0F19982A82D5586
:1017E0007D98A80E161EA22C547C92A4F02C507842
:1017F000F184A898C4CDFCD80DDBA8FC2DF3D9BA90
:10180000A6F8DABAA6DED8BAB2B68696A6D0F3C8DB
:1018100041DAA6C8F8D8B0B4B882A892F52C54889A
:1018200098F135D9F418D8F1A2D0F8F9A884D9C71D
:10183000DFF8F883C5DADF69DF83C1D8F40114F17A
:10184000A8824EA884F311D182F5D992289788F105
:1018500009F41C1CD884A8F3C0F9D1D99782F129C6
:10186000F40DD8F3F9F9D1D982F4C203D8DEDF1A26
:10187000D8F1A2FAF9A88498D9C7DFF8F8F883C795
:10188000DADF69DFF883C3D8F40114F198A8822E57
:10189000A884F311D182F5D992509788F109F41CEC
:1018A000D884A8F3C0F8F9D1D99782F149F40DD8BA
:1018B000F3F9F9D1D982F4C403D8DEDFD8F1AD88C9
:1018C00098CCA809F9D98292A8F57CF1883ACF94EE
:1018D0004A6E98DB6931DAADF2DEF9D88795A8F265
:1018E00021D1DAA5F9F417D9F1AE8ED0C0C3AE82FA
:1018F000C684C3A88595C8A588F2C0F1F4010EF18D
:101900008E9EA8C63E56F554F18872F40115F198E2
:1019100045856EF58E9E0488F142985A8E9E068803
:1019200069F4011CF1981E1108D0F504F11E97020C
:1019300002983625DBF9D985A5F3C1DA85A5F3DF51
:10194000D88595A8F309DAA5FAD88292A8F578F196
:10195000881A849F26889821DAF41DF3D8879F3946
:10196000D1AFD9DFDFFBF9F40CF3D8FAD0F8DAF90C
:10197000F9D0DFD9F9D8F40BD8F3879F39D1AFD993
:10198000DFDFF41DF3D8FAFCA869F9F9AFD0DADE8D
:10199000FAD9F88F9FA8F1CCF398DB45D9AFDFD007
:1019A000F8D8F18F9FA8CAF38809DAAF8FCBF8D89F
:1019B000F2AD978D0CD9A5DFF9BAA6F3FAF412F2BD
:1019C000D8950DD1D9BAA6F3FADAA5F2C1BAA6F321
:1019D000DFD8F1BAB2B68696A6D0CAF349DAA6CB5A
:1019E000F8D8B0B4B8D8AD84F2C0DFF18FCBC3A8BB
:1019F000B2B68696C8C1CBC3F3B0B48898A821DB31
:101A0000718D9D71859521D9ADF2FAD88597A82859
:101A1000D9F408D8F28D29DAF405D9F285A4C2F2F6
:101A2000D8A88D9401D1D9F411F2D88721D8F40A1D
:101A3000D8F28498A8C801D1D9F411D8F3A4C8BBAE
:101A4000AFD0F2DEF8F8F8F8F8F8F8F8D8F1B8F610
:101A5000B5B9B08A95A3DE3CA3D9F8D85CA3D9F870
:101A6000D87CA3D9F8D8F8F9D1A5D9DFDAFAD8B15A
:101A70008530F7D9DED8F830ADDADED8F2B48C99FB
:101A8000A32D557DA083DFDFDFB591A0F629D9FB1B
:101A9000D8A0FC29D9FAD8A0D051D9F8D8FC51D96E
:101AA000F9D879D9FBD8A0D0FC79D9FAD8A1F9F91D
:101AB000F9F9F9A0DADFDFDFD8A1F8F8F8F8F8AC27
:101AC000DEF8ADDE8393AC2C547CF1A8DFDFDFF6CB
:101AD0009D2CDAA0DFD9FADB2DF8D8A850DAA0D0F7
:101AE000DED9D0F8F8F8DB55F8D8A878DAA0D0DF3E
:101AF000D9D0FAF8F8F8F8DB7DF8D89CA88CF53046
:101B0000DB38D9D0DEDFA0D0DEDFD8A848DB58D95B
:101B1000DFD0DEA0DFD0DED8A868DB70D9DFDFA0A1
:101B2000DFDFD8F1A888902C547C98A8D05C38D1FD
:101B3000DAF2AE8CDFF9D8B087A8C1C1B188A8C6E7
:101B4000F9F9DA36D8A8F9DA36D8A8F9DA36D8A801
:101B5000F9DA36D8A8F9DA36D8F78D9DADF818DA63
:101B6000F2AEDFD8F7ADFA30D9A4DEF9D8F2AEDEA6
:101B7000FAF983A7D9C3C5C7F1889BA77AADF7DE69
:101B8000DFA4F8849408A797F300AEF29819A4880C
:101B9000C6A39488F632DFF28393DB09D9F2AADF79
:101BA000D8D8AEF8F9D1DAF3A4DEA7F1889B7AD8B9
:101BB000F38494AE19F9DAAAF1DFD8A881C0C3C5BD
:101BC000C7A39283F628ADDED9F8D8A350ADD9F8D3
:101BD000D8A378ADD9F8D8F8F9D1A1DADEC3C5C752
:101BE000D8A18194F818F2B089ACC3C5C7F1D8B8B0
:101BF000B4B09786A8319B069907AB9728889BF0CD
:101C00000C201440B0B4B8F0A88A9A285078B79B3A
:101C1000A8295179247059446938644831F1BBAB23
:101C200088002C547CF0B38BB8A804285078F1B00D
:101C300088B49726A85998BBABB38B02264666B0EA
:101C4000B8F08A9CA82951798B2951798A24705936
:101C50008B2058718A4469388B3940688A644831CE
:101C60008B30496088F1AC002C547CF08CA804289F
:101C70005078F1889726A85998AC8C02264666F0D1
:101C8000899CA8295179247059446938644831A93C
:101C90008809205970AB11384069A8193148608C07
:101CA000A83C415C207C00F187981986A86E767E5E
:101CB000A999882D557DD8B1B5B9A3DFDFDFAED0A6
:101CC000DFAAD0DEF2ABF8F9D9B087C4AAF1DFDF22
:101CD000BBAFDFDFB9D8B1F1A3978E60DFB084F27C
:101CE000C8F8F9D9DED89385F14AB183A308B58342
:101CF0009A0810B79F10D8F1B0BAAEB08AC2B2B687
:101D00008E9EF1FBD9F41DD8F9D90CF1D8F8F8ADB5
:101D100061D9AEFBD8F40CF1D8F8F8AD19D9AEFB07
:101D2000DFD8F416F1D8F8AD8D61D9F4F4ACF59C98
:101D30009C8DDF2BBAB6AEFAF8F40BD8F1AED0F822
:101D4000AD51DAAEFAF8F1D8B9B1B6A3839C08B9AF
:101D5000B1839AB5AAC0FD3083B79F10B58B93F2BB
:101D60000202D1ABDADED8F1B080BAABC0C3B28424
:101D7000C1C3D8B1B9F38BA391B609B4D9ABDEB066
:101D8000879CB9A3DDF1B38B8B8B8B8BB087A3A31F
:101D9000A3A3B28BB69BF2A3A3A3A3A3A3A3A3A3C2
:101DA000A3F1B087B59AA3F39BA3A3DCBAACDFB9C8
:101DB000A3A3A3A3A3A3A3A3A3A3A3A3A3A3A3A3F3
:101DC000D8D8D8BBB3B7F1AAF9DAFFD9809AAA2834
:101DD000B48098A720B79787A86688F07951F190CA
:101DE0002C870CA781976293F0717160859401290B
:101DF000517990A5F1284C6C870C95188578A383B0
:101E000090284C6C886CD8F3A28200F210A892192A
:101E100080A2F2D926D8F188A84DD948D896A839F9
:101E200080D93CD89580A839A68698D92CDA87A77E
:101E30002CD8A8899519A980D938D8A88939A9801A
:101E4000DA3CD8A82EA83990D90CD8A8953198D9C1
:101E50000CD8A809D9FFD801DAFFD89539A9DA2614
:101E6000FFD890A80D8999A810809821DA2ED889DA
:101E700099A83180DA2ED8A886963180DA2ED8A893
:101E8000873180DA2ED8A88292F34180F1D92ED8FA
:101E9000A882F31980F1D92ED882ACF3C0A2802297
:101EA000F1A62EA72EA92298A829DAACDEFFD8A287
:101EB000F22AF1A92E8292A8F23180A696F1D900D9
:101EC000AC8C9C0C30ACDED0DEFFD88C9CACD0103F
:101ED000ACDE8092A2F24C82A8F1CAF235F196886B
:101EE000A6D900D8F1FF000000040000B8AAB38D05
:101EF000B4980D355D000000B8AAAAAAB088C3C581
:101F0000C7000000FEF2ABC4AAF1DFDFBBAFDFDF2A
:101F10004CCD6C000CC92C00365676002646660067
:101F200075191A0C6A231B1C1D1E1F207274433B5B
:101F30004138393A696B6C376F77246D6E7025269E
:101F40002728292A346364674900000068000004D8
:101F500080004101000000013313000083000000F5
:101F60000040000000020000C800C8000000A041BE
:101F7000000070420000003F6666663ECDCC2C3FFC
:101F80000000003F0000003F0A0000003C0A560A23
:101F9000700A8B0AA60AC10ADD0AF80A150B310B72
:101FA0004E0B6B0B880BA50BC30BE10B000C1E0C2F
:101FB0003D0C5D0C7C0C9C0CBD0CDD0CFE0C1F0D57
:101FC000410D630D850DA80DCB0DEE0D120E360ED5
:101FD0005A0E7F0EA40ECA0EEF0E160F3C0F630FA3
:101FE0008B0FB30FDB0F03102C1056108010AA10AC
:101FF000D41000112B1157118311B011DE110B12E7
:10200000391268129712C712F712271359138A133D
:10201000BC13EF13221455148914BE14F31429159C
:102020005F159515CD1504163D167616AF16E916F3
:1020300024175F179B17D817151852189118CF1827
:102040000F194F199019D119131A561A9A1ADE1A24
:10205000221B681BAE1BF51B3D1C851CCE1C181DCE
:10206000621DAD1DF91D461E941EE21E311F811F0B
:10207000D11F23207520C8201C217121C7211D22BA
:102080007422CD2226238023DA2336249324F124BC
:102090004F25AF250F267126D32636279B270028EC
:1020A0006728CE283629A0290B2A762AE32A512B25
:1020B000C02B302CA12C132D862DFB2D712EE82E3C
:1020C000602FD92F5330CF304C31CA314A32CA3207
:1020D0004C33D0335434DA346235EA357436003751
:1020E0008D371B38AA383C39CE39623AF83A8F3BE3
:1020F000273CC13C5D3DFA3D983E383FDA3F7E408B
:102100002341CA4172421C43C84376442545D64503
:1021100089463D47F447AC486649224ADF4A9F4B0F
:10212000614C244DEA4DB14E7B4F46501451E35162
:10213000B55289535E5436551156ED56CB57AC58AF
:102140008F59745A5C5B465C325D215E125F05609C
:10215000FB60F361EE62EB63EB64ED65F266FA67D8
:102160000469116A206B336C486D5F6E7A6F9770EB
:10217000B871DB7201742A7556768577B778EC7979
:10218000247B5F7C9D7DDF7E24806C8100000000CD
:10219000010203040102030406070809654D504CBF
:1021A00020352E310000000000000000D82100087A
:1021B000E1D70308F5D70308D1DE0308D5DE03080D
:1021C0006DDE0308D1DD0308F1D6030819D7030833
:1021D000A9D7030800000000B0210008E42100088E
:1021E000C02200084E31305F5F63787861626976A3
:1021F0003132305F5F73695F636C6173735F7479F1
:1022000070655F696E666F4500000000B0210008D0
:1022100018220008C02200084E31305F5F637878D2
:10222000616269763132315F5F766D695F636C61DF
:1022300073735F747970655F696E666F4500000047
:10224000000000000C2200084DDA030861DA0308E0
:10225000D1DE0308D5DE03086DDE0308D1DD0308F7
:10226000EDD803087DDA030819D803080000000040
:1022700070757265207669727475616C206D657415
:10228000686F642063616C6C65640A000000000084
:1022900000000000C022000895DE0308A9DE030844
:1022A000D1DE0308D5DE03086DDE0308D1DD0308A7
:1022B00015DE030831DE030809DE03080000000014
:1022C000B0210008CC220008F02200084E31305F17
:1022D0005F637878616269763131375F5F636C6123
:1022E00073735F747970655F696E666F4500000097
:1022F00098220008F8220008537439747970655FD9
:10230000696E666F0000000000000000F022000807
:10231000C5DE0308DDDE0308D1DE0308D5DE0308D1
:102320002DDF0308D9DE03087465726D696E617470
:10233000652063616C6C6564207265637572736996
:1023400076656C790A0000007465726D696E61745F
:10235000652063616C6C65642061667465722074CD
:1023600068726F77696E6720616E20696E73746141
:102370006E6365206F66202700000000270A0000BA
:102380007465726D696E6174652063616C6C6564FF
:1023900020776974686F757420616E206163746959
:1023A000766520657863657074696F6E0A00000059
:1023B00020207768617428293A202000982200089C
:1023C000682400080000000000000000BC23000892
:1023D00089EA0308CDEA0308A1EA03080000000027
:1023E0009822000878240008537431336261645FD6
:1023F000657863657074696F6E0000004E31305F00
:102400005F637878616269763131395F5F666F72D8
:102410006569676E5F657863657074696F6E4500A6
:102420007374643A3A657863657074696F6E00001E
:102430007374643A3A6261645F6578636570746965
:102440006F6E000098220008FC23000800000000C6
:10245000000000009824000895EA0308B9EA030880
:10246000ADEA0308000000005374396578636570B5
:1024700074696F6E000000004E31305F5F637878E2
:10248000616269763131355F5F666F726365645F83
:10249000756E77696E644500B0210008E823000876
:1024A000BC2300085F474C4F42414C5F00000000D6
:1024B00028616E6F6E796D6F7573206E616D6573D7
:1024C0007061636529000000737472696E67206C27
:1024D00069746572616C0000737464007374000049
:1024E000636C000064740000707400004A417272F2
:1024F000617900005B5D0000636F6E7374727563D9
:1025000074696F6E20767461626C6520666F7220EC
:102510000000000074797065696E666F206E616DF1
:102520006520666F722000006E6F6E2D7669727482
:1025300075616C207468756E6B20746F20000000EC
:10254000636F76617269616E742072657475726E04
:10255000207468756E6B20746F200000677561725F
:1025600064207661726961626C6520666F7220001A
:102570007265666572656E63652074656D706F72F5
:1025800061727920666F7220000000006978000097
:10259000203A2000756C00006C6C0000756C6C00BB
:1025A00066616C7365000000747275650000000060
:1025B000256C64002E2E2E00676C6F62616C2063A8
:1025C0006F6E7374727563746F7273206B65796567
:1025D0006420746F20000000676C6F62616C20647F
:1025E000657374727563746F7273206B657965645B
:1025F00020746F20000000007369676E65642063BB
:1026000068617200626F6F6C00000000626F6F6C37
:1026100065616E0063686172000000006279746534
:1026200000000000646F75626C6500006C6F6E677F
:1026300020646F75626C6500666C6F6174000000E9
:102640005F5F666C6F61743132380000756E73695C
:10265000676E65642063686172000000696E7400D3
:10266000756E7369676E656420696E7400000000A2
:10267000756E7369676E6564000000006C6F6E674D
:1026800000000000756E7369676E6564206C6F6E84
:10269000670000005F5F696E74313238000000002F
:1026A000756E7369676E6564205F5F696E74313241
:1026B0003800000073686F7274000000756E7369F3
:1026C000676E65642073686F72740000766F69646A
:1026D0000000000077636861725F74006C6F6E6762
:1026E000206C6F6E67000000756E7369676E6564BD
:1026F000206C6F6E67206C6F6E67000064656369A5
:102700006D616C3332000000646563696D616C3625
:1027100034000000646563696D616C31323800001B
:1027200068616C66000000006368617231365F7436
:10273000000000006368617233325F7400000000C3
:102740007374643A3A616C6C6F6361746F72000009
:10275000616C6C6F6361746F720000007374643A33
:102760003A62617369635F737472696E6700000037
:1027700062617369635F737472696E670000000061
:102780007374643A3A737472696E67007374643A6E
:102790003A62617369635F737472696E673C636800
:1027A00061722C207374643A3A636861725F747268
:1027B000616974733C636861723E2C207374643A7F
:1027C0003A616C6C6F6361746F723C636861723EF6
:1027D000203E00007374643A3A6973747265616DE7
:1027E000000000007374643A3A62617369635F6960
:1027F00073747265616D3C636861722C20737464DC
:102800003A3A636861725F7472616974733C6368B9
:1028100061723E203E00000062617369635F69730C
:10282000747265616D0000007374643A3A6F73747A
:102830007265616D000000007374643A3A626173FE
:1028400069635F6F73747265616D3C636861722C5C
:10285000207374643A3A636861725F747261697478
:10286000733C636861723E203E00000062617369E0
:10287000635F6F73747265616D0000007374643A16
:102880003A696F73747265616D0000007374643A25
:102890003A62617369635F696F73747265616D3CFD
:1028A000636861722C207374643A3A636861725F82
:1028B0007472616974733C636861723E203E00000B
:1028C00062617369635F696F73747265616D000043
:1028D000614E0000263D0000615300003D000000F5
:1028E00061610000262600006164000026000000EF
:1028F000616E000028290000636D00002C000000BC
:10290000636F00007E000000645600002F3D000051
:102910006461000064656C6574655B5D00000000C7
:10292000646500002A000000646C000064656C654A
:10293000746500002E000000647600002F00000087
:10294000654F00005E3D0000656F00005E00000006
:10295000657100003D3D0000676500003E3D0000E0
:10296000677400006C5300003C3C3D003C3D00009F
:102970006C7300003C3C00006C7400003C000000E4
:102980006D4900002D3D00006D4C00002A3D000007
:102990006D6900002D0000006D6C00006D6D000081
:1029A0002D2D00006E6100006E65775B5D000000FC
:1029B0006E650000213D00006E74000021000000E3
:1029C0006E7700006E6577006F5200007C3D00005E
:1029D0006F6F00007C7C00007C000000704C0000E9
:1029E0002B3D0000706C00002B000000706D00009B
:1029F0002D3E2A00707000002B2B00007073000029
:102A00002D3E0000717500003F000000724D000077
:102A1000253D0000725300003E3E3D00726D0000F7
:102A200025000000727300003E3E000073697A6565
:102A30006F662000737A000061740000616C696742
:102A40006E6F662000000000617A000061636F73A2
:102A5000000000006C6F670073717274000000006A
:102A600061636F736600000073717274660000002A
:102A700043000000494E4600696E66004E414E001C
:102A80006E616E0030313233343536373839414279
:102A90004344454600000000303132333435363788
:102AA000383961626364656600000000286E756CE9
:102AB0006C29000030000000496E66696E69747907
:102AC000000000004E614E00504F53495800000076
:102AD000F8B500BFF8BC08BC9E467047F8B500BF0B
:102AE000F8BC08BC9E46704703970181B0B00884CB
:102AF0000000000002970181B0B0098400000000CE
:102B000003970181B0B008840000000001970181A3
:102B1000B0B008840000000001970181B0B00884C3
:102B20000000000001970181B0B00884000000009F
:102B300003970181B0B00884000000000197018173
:102B4000B0B008840000000003970181B0B0088491
:102B50000000000003970181B0B00884000000006D
:102B600003970181B0B00884000000000397018141
:102B7000B0B008840000000003970181B0B0088461
:102B80000000000007970181B0B008840000000039
:102B900003970181B0B00884000000000197018113
:102BA000B0B008840000000005970181B0B008842F
:102BB0000000000003970181B0B00884000000000D
:102BC00001970181B0B008840000000007970181DF
:102BD000B0B008840000000015970181B0B00884EF
:102BE000000000000C970181B0B0AF3F0000000072
:102BF00001970181B0B008840000000007970181AF
:102C0000B0B008840000000003970181B0B00884D0
:102C10000000000001970181B0B0088400000000AE
:102C20000A970181B0B0098400000000019701817A
:102C3000B0B008840000000001970181B0B00884A2
:102C40000000000003970181B0B00884000000007C
:102C500003970181B0B00884000000000197018152
:102C6000B0B008840000000001970181B0B0088472
:102C70000000000001970181B0B00884000000004E
:102C800007970181B0B0088400000000019701811E
:102C9000B0B008840000000009970181B0B008843A
:102CA0000000000001970181B0B00884000000001E
:102CB00007970181B0B008840000000003970181EC
:102CC000B0B008840000000000970181B0B0AB3FB5
:102CD0000000000009970181B0B0088400000000E6
:102CE00007970181B0B008840000000003970181BC
:102CF000B0B008840000000001970181B0B00884E2
:102D00000000000009970181B0B0088400000000B5
:102D100009970181B0B008840000000008B101816A
:102D2000B0B00084000000009DB503008408B1012C
:102D3000B0B0B000FF0019010C020608010C04102D
:102D4000051E0A000001007F00007D000000000059
:102D50000000000008B10181B0B000840000000054
:102D600008B10181B0B000840000000059B5030033
:102D7000B0AF0400FF001D01142404E201012A0485
:102D80007001B2016C9E0200A60204000001000066
:102D90000000000031B50300B0AF1400FF001901BE
:102DA000113E88040000F00404E40701F604A402C4
:102DB00000000100000000000DB50300A908B100EB
:102DC000FF0011010A7A048C010192010800007FC2
:102DD0000000000000000000EDB40300B0AA0100F4
:102DE000FF0035012538440000800104D201038A28
:102DF00001180000AE0104D20103CA013C0000A288
:102E00000218C00200C4020400000200017D00009C
:102E100000000000A8F5FFFFA4B20181B0B0AF012F
:102E20000000000008B10181B0B000840000000083
:102E300008B10181B0B000840000000008B1018138
:082E4000B0B0008400000000A6
:102E48003C8C010001000000B48C0100B0A9028094
:102E58007C8D0100B0B0A880DC8D0100B4FFFF7F3D
:102E6800C88E0100B0B0AA80F08E010001000000F9
:102E7800848F0100B0AF0A80C892010001000000F1
:102E8800CC920100AE3F2780AC9601000100000003
:102E9800A8960100AB10B280109701000100000055
:102EA8001C970100A908B18050970100010000009B
:102EB8006497010068FFFF7F6C970100AB26B28022
:102EC800F497010001000000CC990100B0A803802C
:102ED800E099010001000000DC990100B0AE038018
:102EE800E49C0100B0A90480089D01003CFFFF7F1D
:102EF8000C9D010040FFFF7F189D010001000000AC
:102F0800E80A0200B0B0B080E80A02000100000040
:102F1800000B0200B0B0B080000B020001000000FE
:102F28003C0B0200B0B0B0803C0B02000100000076
:102F3800540B0200B0B0B080540B02000100000036
:102F4800F80B02009CFBFF7F200C0200A0FBFF7F18
:102F5800440C0200A4FBFF7F600C0200A8FBFF7F6B
:102F6800700C0200B0B0B080700C020001000000CC
:102F7800900C0200B0B0B080900C020094FBFF7F70
:102F8800A00C0200B0B0B080A00C020090FBFF7F44
:102F9800B00C0200B0B0B080B00C0200010000001C
:102FA800C00C0200B0B0B080C00C020001000000EC
:102FB8000C0D020074FBFF7F680D02000100000089
:102FC800BC0D020070FBFF7FF40D02000100000041
:102FD800300E0200B0B0B080300E020001000000D8
:102FE800480E0200B0B0B080480E02000100000098
:102FF800CC0E02004CFBFF7F3C0F020050FBFF7F12
:10300800CC0F020054FBFF7F2010020058FBFF7F0B
:10301800581002005CFBFF7F10110200B0B0B080B6
:103028001011020058FBFF7FDC110200B0B0B08025
:10303800DC11020054FBFF7F34120200B0B0B080F4
:1030480034120200010000004C120200B0B0B0803F
:103058004C120200010000005C120200B0B0B08007
:103068005C12020030FBFF7FEC12020034FBFF7F92
:103078003013020001000000301A020030FBFF7F0D
:10308800A81A020001000000302802002CFBFF7F74
:103098009828020001000000F829020028FBFF7FA1
:1030A8009C2D020008849780102E020024FBFF7FCD
:1030B800C42F020008849780EC2F020020FBFF7FBA
:1030C8003848020001000000784802001CFBFF7F1E
:1030D800A449020020FBFF7F084B020024FBFF7F6E
:1030E800344B020028FBFF7FCC4B02002CFBFF7FF8
:1030F800D04D020030FBFF7F484E020034FBFF7FBB
:10310800804E0200010000009477020030FBFF7F30
:103118000078020034FBFF7F6878020038FBFF7FED
:103128007C7802003CFBFF7FA078020040FBFF7F19
:10313800B078020001000000AC7B02003CFBFF7F7E
:10314800647D020040FBFF7F8C7D020044FBFF7F13
:10315800247E020048FBFF7F807E02004CFBFF7F3D
:10316800407F0200010000003482020048FBFF7F1C
:10317800BC8202004CFBFF7FD892020050FBFF7F0D
:10318800A493020054FBFF7F0094020058FBFF7FCA
:10319800549402005CFBFF7F8C9402000100000045
:1031A80028F9020058FBFF7F84F902005CFBFF7FCF
:1031B80088FA02000100000030A50300AB08B180C6
:1031C80050A50300B0AF0680D8A50300B0AA0380BD
:1031D80008A60300B0B0A88030A6030001000000D4
:1031E80030A60300B0AF0280FCA60300B0AF088091
:1031F80054A80300B0B0A8807CA80300B0AF10802A
:10320800A4AB030001000000A8AB030008FBFF7F8C
:10321800B8AB0300B0AA0380E8AB030001000000CC
:10322800ECAB0300A908B18000AC0300B0AB02808E
:1032380034AC0300AB08B18054AC0300B0B0A88034
:103248007CAC030001000000E0AC0300D4FAFF7F6F
:1032580000AD03000100000008AD0300F0FAFF7F95
:1032680008AD0300F4FAFF7F14AD0300010000006D
:103278005CAD0300F0FAFF7F84AE0300010000009C
:10328800B8AE0300B0AC03805CAF0300B0B0A88058
:10329800A0AF0300AB08B18024B00300F0FAFF7FB1
:1032A80008B40300B0B0A8804CB40300AB08B180E8
:1032B800C4B40300B0B0A88034B503000100000016
:1032C80044B50300ECFAFF7FD8B503000100000005
:1032D80068B60300FCFAFF7FA8B7030001000000EE
:1032E80014B80300B0AC0180DCB803000100000092
:1080000040F29873C2F200031A780AB9012018707E
:10801000704700BF40F29470C2F2000008B50368D8
:108020002BB140F20003C0F2000303B1984708BD32
:10803000024840F25231012226F0B2B9B18500085F
:1080400038B5054613F022FA0C490D4C13F072FABC
:108050000C4913F023FB4FF07C5113F06BFA12F034
:10806000F5FD0EF07DFF0022074B12F043FE13F0EA
:10807000DBF8C4F88050C4F8840038BD368D274042
:10808000A0070020002474490000D041F8B52C4C12
:108090004FF07E52134604F5E47104F5D47507469B
:1080A00004F1E00000F0F0FF04F1E000294604F1E3
:1080B000500201F019FA064608B93046F8BD636867
:1080C000D4E914010133636013F0AEF8B96E24F003
:1080D00081FF13F0DBF94FF05E5113F02BFA12F031
:1080E000B5FDC4E91401D5E9000113F09DF804F5CC
:1080F000D873A065D3E9000113F096F804F5DC739A
:10810000E065D3E9000113F08FF804F5D071206623
:1081100009A3D3E90023D1E9000113F07BF800287B
:10812000CBD0084A04F1E0000146134600F0ACFF52
:108130003046F8BDAFF30080000000000070A7409B
:10814000A0070020CDCCCC3E044B0549054A19625E
:10815000DA6259621A6399625A637047A007002075
:1081600000401CC600401C4670B50B4C0326D4F8DA
:10817000B450206A294613F07BFB00B12562E16A06
:10818000284613F075FB731E00B1E562043413F04A
:10819000FF06ECD170BD00BFA0070020F0B50F4B6B
:1081A000B0F94AE0B0F94C70B0F948C05E6E9D6E0F
:1081B000DC6E024685B00B46C6EB0C46C5EB0E45A1
:1081C000C4EB0744916EB0F84400019601AA0295F1
:1081D000039425F06FFC05B0F0BD00BFA0070020A0
:1081E000F8B50669C56804463146284613F05EFBBB
:1081F00090B167692846394613F058FB60B10023F7
:1082000023643046394613F047FB00282BD0012366
:1082100063640223A364F8BD2846314613F028FBAB
:1082200088B167693046394613F040FB58B10123E5
:1082300023642846394613F02FFBC8B1002363643A
:108240000223A364F8BD022323642846314613F0B9
:1082500023FB18B901236364A064F8BD00236364A1
:108260000123A364F8BD022363640123A364F8BD62
:1082700002236364A064F8BD00230022036043620C
:10828000436083628360C3620123C2644367826781
:10829000704700BF002314210022816503600A217A
:1082A0004362436083628360C3620123016680F896
:1082B0007020C26443678267426570472DE9F043CE
:1082C00087B06946FFF76AFF00260024002503AF48
:1082D0005DF8060013F0DAF84FF05E5113F02AF95A
:1082E0000146B85113F026F912F0B0FC02460B46D5
:1082F0002046294612F04CFB04360C2E04460D464F
:10830000E6D10FF0A5F8134F04460D4602AE0DF16D
:10831000140956F8040FD7F8008012F097FC224693
:108320002B4612F011FE12F0A7FF0146404612F054
:10833000F9FF4E4547F8040BEBD1074BD3F88424E3
:108340000132C3F884240122C3F8AC2407B0BDE88D
:10835000F08300BFD00B0020A00700202DE9F041E2
:1083600086B003AF02AA0DF107010646384625F094
:1083700027FC0398014613F0DDF812F067FC002299
:10838000002312F005FB044604980D46014613F045
:10839000D1F812F05BFC02460B462046294612F04B
:1083A000F7FA044605980D46014613F0C3F812F09B
:1083B0004DFC02460B462046294612F0E9FA0FF022
:1083C00047F84FF0000804460D4657F8080012F031
:1083D0003DFC22462B4612F0B7FD12F04DFF014640
:1083E00056F8080012F09EFF46F8080008F104084D
:1083F000B8F10C0FE9D1736D013373650123F36795
:1084000006B0BDE8F08100BF2DE9F04F054683B00E
:10841000006D13F03BF8D5F83C9083464FF07E5149
:10842000484612F07DFF2C46019000265946A85977
:1084300013F034F90021074613F02EFA002853D028
:10844000B846D4F818A00021504613F025FA0028A9
:1084500046D05146404612F063FF616A2063A7612F
:10846000019813F067F80146384612F05BFF494661
:1084700013F014F900216062074613F00DFA00288A
:108480002BD00022E760AA51043604340C2ECDD143
:108490002846FFF7A5FEEB6CB3F57A7F01DA0133CE
:1084A000EB6495F870302C6C052B13D8DFE803F0E3
:1084B0003D454E64031F05EB8404E96EE06813F04C
:1084C000E1F938B10522012385F870200022EA6421
:1084D0006B67AB6703B0BDE8F08F07F10047D0E7EB
:1084E0000AF100439A46B4E707F10048A9E705EB13
:1084F0008403A96ED86813F0C5F978B90C3455F81F
:10850000240012F0A3FB28A3D3E9002312F06EFE8F
:10851000002840D0EA6C2B6E9A42DBDB0123032259
:1085200085F870206B67AB67D4E7012300226B6787
:10853000AB67EA6485F87030CCE7EB6F012BC9D1EB
:10854000022385F870300023AB67C3E705EB840492
:10855000696EE468204613F09FF9A8B92046A96E19
:1085600013F090F901230028D9D1052285F8702055
:10857000E8646B67AB67ADE705EB8404696EE068A0
:1085800013F08AF90028A5D00023042285F8702072
:108590006B67AB679EE7042385F87030E864686713
:1085A000A86797E7AFF300809A9999999999A9BF1D
:1085B0002DE9F04F0646C06EDFF848929FB044F6B2
:1085C0001F630024984211941294139421DDD9F86A
:1085D0008030984201D0FFF733FD336B894CC9F8E6
:1085E000B0343046FFF76AFED9F88424D9F88034D5
:1085F0009A421ADAD9F8A834824A012B21D0D9F844
:10860000A434804C012B00F0058100201FB0BDE890
:10861000F08FD9F8482380189842C9F84803F4DD50
:10862000FFF70EFDC9F84843D7E704F58660FFF76A
:10863000EBFE0023C4F88434D9F8A834714A012B26
:10864000DDD1D2F89430012B00F03E8214AD2946E2
:108650003046FFF7A3FD17A824F0DCF9149A179B06
:108660006948DFF8ACB1A2EBA33E159A189BCDF890
:1086700050E0A2EBA337169A199B1597A2EBA333F0
:10868000011D602200F11804169315F025FE95E8EF
:1086900007001AAD84E80700284624F047FB04F1E0
:1086A0005801602204F1540015F016FE95E8070009
:1086B00004F16C0383E80700D9F82C141B9B0B9181
:1086C0001A9A1C9908934FF0000CA4F559790C964E
:1086D000079206914B46CDF810C0CDF80CC0664607
:1086E000CDF83490D3F84C43D3F85013D3F8B853A3
:1086F000D3F8C0A3D3F85473D3F8BC038BFB048224
:10870000E4178BFB01C9099202948BFB0542CDF85B
:1087100004904FEAE1788BFB00948BFB071C0A92D4
:10872000DDF808908BFB0A214FEAEA72DDF824A0FD
:10873000C9EB6A09FF17CDF82490C2EB6102C7EBC1
:108740006C070999DDF80CC0DDF828A0DDF804906D
:10875000ED178C440799CDF80CC0C017C5EB6A051E
:10876000C0EB64004919049C0791C8EB690806999D
:10877000444489180494254A089C06910C33241813
:1087800093423E440894ADD10B9B0799039F049DEF
:10879000DDF8349003F10900069BC9F82C04002988
:1087A000B8BF4942B4462246002FB8BF7F42002AD4
:1087B000B8BF5242002BB8BF5B42002DB8BF6D421C
:1087C0008CEAEC74A4EBEC748F421A91ACBF0021DC
:1087D00001219542B8BF01319C420C9E1B921C9313
:1087E000BFF60DAF08287FF70AAF02297FF407AF65
:1087F00099F82414034B022900F26A81084625F0F7
:10880000E5FCFCE6A0070020EC0A00200C08002094
:10881000398EE33811A824F0C7FA1198129FDDF8B9
:108820004C80014612F086FE39460546384612F065
:1088300081FE0146284612F075FD41460546404638
:1088400012F078FE0146284612F06CFD0EF0AAFEEA
:108850004FF08D41E06012F06DFE13F031F81AAD6B
:1088600004F52C714FF0000AADF83C000FA8ADF8EC
:108870003EA0ADF840A002F06BFE284624F030F98F
:10888000216F1A9824F0A6FB616F03901B9824F0C7
:10889000A1FBA16F80461C9824F09CFBE16F07466A
:1088A0001D9824F097FB069095E80F00703484E83B
:1088B0000F00B34617ADBBF94800B16E8C4C0004F5
:1088C00024F088FB12F0E2FD4FF05E5112F032FE10
:1088D00009EB0A030BF1020B5861BBF946301B048C
:1088E00045F80A300AF1040ABAF10C0FE3D104F595
:1088F000E470294600F072FCD4F8282323689A42D9
:10890000FFF683AED6F8E40012F0C0FD4FF05E51E2
:1089100012F010FED4F8D8A005460021504612F0FF
:108920009DFF38B92846514612F0FAFC20F000406D
:10893000C4F8DC00D9F80830C9F8D850052B0ED897
:10894000DFE803F0030303038B816A4BC9F8383077
:108950004FF07E53C9F83C30C823C9F84030336B20
:108960006548DB0565D502F037FC12F0A5FD6349CB
:1089700012F094FEC9F810005D4D9822002105F513
:108980002C7015F003FDDDF80CA0DDF818C0D9F847
:108990008420D044474407EB0C03934267DD2F69E2
:1089A0000021384612F082FF002860D03846A96BBB
:1089B00012F05EFF00285AD06A682B6C9A42C0F20F
:1089C0007881D5F8B00012F041F947A3D3E900232C
:1089D00012F020FC002840F07981D9F81440D9F831
:1089E0001860D9F81C50C9F8B440C9F8B860C9F883
:1089F000BC50DFF8FC90A246C8464FF0030B51462E
:108A0000D8F8200012F034FF514608B1C8F820A071
:108A1000D8F82C0012F04AFF0BF1FF3B08B1C8F860
:108A20002CA01BF0FF0B08F1040875D0D8F8B4A0F7
:108A3000E5E702F089FC12F03FFD314912F02EFE0D
:108A4000C9F8100098E72F4BC9F838302E4BC9F8F9
:108A50003C303223C9F8403081E72C4BC9F838301C
:108A60002B4BC9F83C306423C9F8403077E76C6978
:108A7000AE69ED691E4F4FF00308D7F89800796989
:108A800012F04EFC08F1FF3820F00040C7F8A400B7
:108A9000043718F0FF08F0D1D9F8A810D9F8A400CD
:108AA00012F040FCD9F8AC1012F03CFC4146C9F879
:108AB000B000E8221748C9F89840C9F89C60C9F886
:108AC000A05015F063FCA0E50023C2F89430BDE58A
:108AD00003F16400D3F8282425F094FB012024F04E
:108AE000C7F88CE5AFF300809A9999999999A93FB5
:108AF000A00700200080BB44500A00200050C3475C
:108B000000247449000070423333B33F00009643A1
:108B10009A99993F68090020D9F82C10D9F82000BB
:108B200012F0FEFBD9F83010C9F8CC00D9F82400B7
:108B300012F0F6FBD9F83410C9F8D000D9F82800A3
:108B400012F0EEFBD9E91423CDE90423D846D9F875
:108B50003CA0C9F8D40089F824B4C9F828B4CDF8E9
:108B60001880CDF80C8009EB8B035146D3F8CC006C
:108B700012F092FE0022664BC0B1DDE9040111F053
:108B800005FF21F00043194659A3D3E9002312F051
:108B900023FB039B4FF0010C5A1C0CFA0BF328B17A
:108BA0000699D2B219430392069190460BF1010B3C
:108BB000BBF1030FD7D1069A039BDFF85CA189F8BC
:108BC0002484C9F82824002B47D00AF5D473D3E9AC
:108BD000000112F029FB0AF5D873CAF86400D3E942
:108BE000000112F021FB0AF5DC73CAF86800D3E932
:108BF000000112F019FBDAF80830CAF86C00002204
:108C0000032BD8BF0399CAF82C24039AD8BFCAF8FB
:108C10000810032A21D1D9F80C00DFF8FC8012F0EB
:108C200015F835A3D3E9002312F0D6FAA8B1002233
:108C3000374BD8E9140111F0A9FE21F00043194681
:108C40002BA3D3E9002312F0C7FA30B1D8F80830CB
:108C5000032B02D10423C8F8083038462D4912F0FE
:108C600007FE00283FF406AFD9F80C002A4F11F098
:108C7000EDFF23A3D3E9002312F0AEFA00283FF45E
:108C8000F9AE0022224BD7E9140111F07FFE21F04A
:108C9000004319461CA3D3E9002312F09DFA0028D3
:108CA0003FF4E8AEBB68042B7FF4E4AE0523BB6061
:108CB000E0E6D5F8A434012B7FF4A7AC3046FFF7EB
:108CC000E5F900283FF4A1AC2F6986E6D5F8A43475
:108CD000012B7FF49AAC3046FFF7D8F900283FF417
:108CE00094AC00232F696B6077E600BFAFF3008080
:108CF0009A9999999999B93F295C8FC2F528BC3FF7
:108D00003BDF4F8D976E923F9CC420B07268913FBD
:108D10000000F03F00007A43A007002038B5194C4E
:108D200000214FF49762204615F030FB0A232360A0
:108D3000C4F89034C4F880344FF08443C4F86C34E1
:108D40001E23C4F88C34104B104AC4F89834104BCE
:108D50001049E26222636263C4F8943414220E4B19
:108D6000C4F88824192001224FF08045216225672C
:108D70006162A162C4F8A424C4F89C3402F0E6FF46
:108D8000002038BDA0070020CDCCCC3E00401C46C2
:108D9000CDCC4C3F00401CC63333333F014825F057
:108DA000C9BB00BFB185000808B5FFF7B7FF00B128
:108DB00008BD0248BDE8084023F01ABD3180000814
:108DC00008B5FFF7EBFF0248BDE8084023F0C0BC40
:108DD00031800008014B9868704700BFA007002051
:108DE00002484FF4C871042225F0DABAB9AF00087E
:108DF0002DE9F04F764EB6F9C230B6F9BCA087B077
:108E00000446C3EB0A000D4611F00EFF22462B4626
:108E1000CDE9000112F0E0F9B6F9CA20B6F9D03078
:108E200010F1000BC3EB020018BF4FF0010B11F063
:108E3000FBFE804689462046294642464B4612F0B4
:108E4000E9F908B10BF1010BB6F9DE30B6F9D8003B
:108E5000C01A11F0E9FE06460F4620462946324662
:108E60003B4612F0D7F908B10BF1010BBBF1010F32
:108E700003DD012007B0BDE8F08F0022204629461F
:108E8000544B11F037FF04460D462246DDE9000140
:108E90002B4612F0BFF9224610F1000B2B4640463C
:108EA000494618BF4FF0010B12F0B4F908B10BF1AD
:108EB000010B3046394622462B4612F0ABF900280A
:108EC00078D1BBF1000F75D1434BDFF80481CDF8A9
:108ED00014B0D3E93401D3E93245CDE90001D3E937
:108EE000360108F12409CDE90201AB465046A246FD
:108EF00011F09AFE52465B4611F048FD0446B8F95F
:108F0000C2000D4611F090FE52465B4611F03EFD48
:108F100002460B462046294611F0ECFE0646B8F9FB
:108F2000BE000F4611F080FEDDE9002311F02EFD9A
:108F30000446B8F9C4000D4611F076FEDDE90023C1
:108F400011F024FD02460B462046294611F0D2FEC0
:108F500002460B463046394611F01AFD0646B8F96E
:108F6000C0000F4611F060FEDDE9022311F00EFD96
:108F70000446B8F9C6000D4611F056FEDDE902239D
:108F800011F004FD02460B462046294611F0B2FEC0
:108F900002460B463046394611F0FAFC0022002307
:108FA00008F10C0812F018F970B9C84504D0B8F9E6
:108FB000BC009DE702205DE7DDF814B0BBF1010FB6
:108FC000CCBF0020012055E7059901310591ECE760
:108FD000603900200000044090370020014BC3F8A6
:108FE000E8007047603900200B4B10B493E8110083
:108FF000C201996882EAD00282EA041282EAC101BF
:10900000400380EA5110D40A84EA40205A609960F3
:10901000186010BC704700BF0400002070B5064601
:10902000FFF7E2FF12F02EFA164912F083FA4FF022
:109030003E5112F07FFA0EF0BFF80546FFF7D4FF5D
:1090400012F020FA4FF03E5112F074FA002104465B
:1090500012F004FC08B14FF07E54204611F0F6FDEA
:109060000EF076F900224FF0404311F043FE12F06B
:1090700003F90EF097FA314612F05CFA294612F025
:1090800059FA70BDDB0FC9402DE9F04F85B01C4681
:10909000039010468B4611F0D9FDCDE90001204622
:1090A00011F0D4FD039E0446D6E930230D46DDE9D8
:1090B000000111F01FFEDBE9302306460F46204673
:1090C000294611F017FE02460B463046394611F08C
:1090D0005FFC039EC6E93001B046D9464FF0000A56
:1090E000D8E90023DDE9000111F004FED9E90023ED
:1090F00006460F462046294611F0FCFD02460B4667
:109100003046394611F044FCD8E92423C8E900016F
:10911000DDE9000111F0EEFDD9E9242306460F46F2
:109120002046294611F0E6FD02460B4630463946F8
:1091300011F02EFC0AF1010ABAF1060FC8E9240168
:1091400009F1080908F10808CAD1039E0BF140098A
:1091500006F1480A4FF00008DAE90023DDE90001D2
:1091600011F0C8FDF9E9022306460F4620462946BC
:1091700011F0C0FD02460B463046394611F008FC9E
:1091800008F10108B8F1090FEAE80201E4D1039EF1
:1091900006F13009CA464FF00008D946DAE9002343
:1091A000DDE9000111F0A6FD09EB0803D3E90C236A
:1091B00006460F462046294611F09CFD02460B4606
:1091C0003046394611F0E4FB08F10808B8F1180FF1
:1091D000EAE80201E2D105B0BDE8F08F2DE9F047E1
:1091E00082468EB008680C4611F01EFD804660680D
:1091F000894611F019FD0646A0680F4611F014FDCE
:10920000002204460D46934BDAE9300111F0C0FB11
:1092100042464B46CAE93001DAE90C0111F0B8FBCD
:1092200032463B46CAE90C01DAE90E0111F0B0FB07
:1092300022462B46CAE90E01DAE9100111F0A8FB1B
:109240004246CAE910014B464046494611F052FDDC
:1092500002460B46CDE90401DAE9000111F098FB62
:109260003246CAE900013B464046494611F042FDFC
:1092700002460B46CDE90001DAE9020111F088FB54
:109280002246CAE902012B464046494611F032FD0A
:1092900002460B46CDE90201DAE9040111F078FB40
:1092A0003246CAE904013B463046394611F022FDF8
:1092B00002460B46CDE90601DAE9060111F068FB2A
:1092C0002246CAE906012B463046394611F012FD06
:1092D00002460B46CDE90801DAE9080111F058FB16
:1092E0002246CAE908012B462046294611F002FD14
:1092F00002460B46CDE90A01DAE90A0111F048FB02
:10930000DDE90423CAE90A014046494611F0F2FCAE
:1093100002460B46CDE90C01DAE9120111F038FBE7
:10932000DDE90023CAE912013046394611F0E2FCBA
:1093300002460B46DAE9140111F02AFBDDE90223AB
:10934000CAE914012046294611F0D4FC02460B4616
:10935000DAE9160111F01CFBDDE90023CAE9160168
:109360004046494611F0C6FC02460B46DAE91801B0
:1093700011F00EFBDDE90623CAE918013046394633
:1093800011F0B8FC02460B46CDE90001DAE91A01FA
:1093900011F0FEFADDE90823CAE91A012046294640
:1093A00011F0A8FC02460B46DAE91C0111F0F0FAB4
:1093B000DDE90223CAE91C014046494611F09AFC46
:1093C00002460B46DAE91E0111F0E2FADDE9082354
:1093D000CAE91E013046394611F08CFC02460B46A4
:1093E000DAE9200111F0D4FADDE90A23CAE9200103
:1093F0002046294611F07EFC02460B46CDE90201CB
:10940000DAE9220111F0C4FADDE90C23CAE92201EC
:109410004046494611F06EFC02460B46DAE924014B
:1094200011F0B6FADDE90023CAE9240130463946D5
:1094300011F060FC02460B46DAE9260111F0A8FAA9
:10944000DDE90223CAE926012046294611F052FC33
:1094500002E000BF0000F03F02460B46DAE92801B7
:1094600011F096FADDE90423CAE9280130463946AD
:1094700011F040FC02460B463046394611F03AFCEA
:1094800002460B46DAE92A0111F082FADDE90423EB
:10949000CAE92A012046294611F02CFC02460B4657
:1094A0002046294611F026FC02460B46DAE92C013B
:1094B00011F06EFADDE90623CAE92C01204629469F
:1094C00011F018FC02460B462046294611F012FC0A
:1094D00002460B46DAE92E0111F05AFACAE92E01CA
:1094E0000EB0BDE8F08700BF2DE9F04FD0E930891C
:1094F000D0E90045B3B00646D0E90CAB2B4631921B
:109500000F46224640464946CDE90E4511F0F2FB92
:10951000524604460D465B465046594611F0EAFB5A
:1095200002460B462046294611F030FAD6E9064598
:10953000CDE91645D6E90E45DDE91623CDE9100142
:1095400040464946CDE9024511F0D4FB04460D469C
:10955000DDE9020102460B4611F0CCFB02460B4648
:109560002046294611F012FAD6E90A45CDE91845F8
:10957000D6E91045DDE91823CDE9120140464946F8
:10958000CDE9044511F0B6FB04460D46DDE90401C2
:1095900002460B4611F0AEFB02460B46204629461A
:1095A00011F0F4F9D6E90223CDE914014046494609
:1095B00011F0A0FBDDE9022304460D465046594652
:1095C00011F098FB02460B462046294611F0DEF9C1
:1095D000D6E90423CDE906014046494611F08AFB4D
:1095E000DDE9042304460D465046594611F082FB3E
:1095F00002460B462046294611F0C8F9D6E9082351
:10960000CDE90C014046494611F074FBDDE9042325
:1096100004460D46DDE9020111F06CFB02460B46E3
:109620002046294611F0B2F9CDE90801DDE906230B
:10963000DDE9140111F05EFBDDE90C23CDE91A012F
:10964000DDE9120111F056FBDDE91223CDE91C0121
:10965000DDE9100111F04EFBDDE90623CDE91E0125
:10966000DDE91A0111F046FB04460D46DDE906016D
:1096700002460B4611F08CF9DDE90C2311F03AFBA0
:10968000DDE9082311F036FB02460B462046294649
:1096900011F07CF9DDE90C2304460D46DDE91C01DF
:1096A00011F028FB02460B462046294611F070F9BE
:1096B000DDE9082304460D46DDE9100111F01AFB2F
:1096C000DDE9082311F016FB02460B462046294629
:1096D00011F05EF9DDE9142304460D46DDE91E01B3
:1096E00011F008FB02460B462046294611F04EF9C0
:1096F000CDE92001D6E91245CDE90A45D6E9144560
:10970000CDE90045D6E91645CDE92245D6E918450B
:10971000CDE92445D6E91A45CDE92645D6E91C45CB
:10972000CDE92845D6E91E45CDE92A45D6E92045AB
:10973000CDE92C45D6E9224500220023CDE92E456E
:1097400011F040FD20B10023184633B0BDE8F08F82
:10975000DDE90A234046494611F0CCFA5246044658
:109760000D465B46DDE90E0111F0C4FA02460B46D8
:109770002046294611F00AF9DDE9002304460D468A
:109780004046494611F0B6FA02460B4620462946A5
:1097900011F0FEF8DDE9162304460D465046594601
:1097A00011F0A8FA02460B462046294611F0EEF8C1
:1097B000DDE9222304460D464046494611F09AFA57
:1097C00002460B462046294611F0E2F8DDE918234F
:1097D00004460D465046594611F08CFA02460B4697
:1097E0002046294611F0D2F80022964B11F082FA59
:1097F000DDE92423CDE90A014046494611F07AFA11
:10980000DDE9022304460D46DDE90E0111F072FA8E
:1098100002460B462046294611F0B8F8DDE926231A
:1098200004460D464046494611F064FA02460B468E
:109830002046294611F0ACF8DDE9022304460D4626
:10984000DDE9160111F056FA02460B46204629467C
:1098500011F09CF8DDE9282304460D4640464946B0
:1098600011F048FA02460B462046294611F090F8BE
:10987000DDE9182304460D46DDE9020111F03AFA4C
:1098800002460B462046294611F080F800226D4B17
:1098900011F030FADDE92A2382468B4640464946DC
:1098A00011F028FADDE9042304460D46DDE90E0136
:1098B00011F020FA02460B462046294611F066F8C0
:1098C000DDE92C2304460D464046494611F012FAC4
:1098D00002460B462046294611F05AF8DDE90423DA
:1098E00004460D46DDE9160111F004FA02460B4666
:1098F0002046294611F04AF8DDE92E2304460D469C
:109900004046494611F0F6F902460B4620462946E4
:1099100011F03EF8DDE9042304460D46DDE91801A7
:1099200011F0E8F902460B462046294611F02EF8C0
:109930000022444B11F0DEF9DDE90C238046894614
:10994000DDE9060111F0D6F942464B46CDE90E019C
:10995000DDE9120111F0CEF9524604460D465B4690
:10996000DDE9080111F0C6F902460B4620462946FA
:1099700011F00CF8DDE90C2311F0BCF904460D469A
:10998000DDE9080102460B4611F0B4F9DDE90A23CE
:1099900011F0B0F902460B462046294610F0F8FFB8
:1099A000DDE9142304460D46DDE9120111F0A2F9A8
:1099B000DDE90A2311F09EF902460B4620462946AE
:1099C00010F0E4FFDDE91A2304460D4650465946DF
:1099D00011F090F902460B462046294610F0D8FFB8
:1099E000DDE9082304460D46DDE9060111F082F9A0
:1099F00042464B4611F07EF902460B462046294668
:109A000010F0C4FFDDE9202311F09EFACDE9020138
:109A1000DDE9024542464B46C7E90045DDE9100154
:109A200011F068F9DDE90A2304460D46DDE90C0171
:109A300011F060F902460B462046294610F0A6FFB9
:109A400002E000BF0000E03FDDE9082311F052F919
:109A500004460D46DDE90C0102460B4611F04AF9B9
:109A600052465B4611F046F902460B46204629460F
:109A700010F08EFFDDE9142304460D46DDE91001E8
:109A800011F038F952465B4611F034F902460B46A4
:109A90002046294610F07AFFDDE91A2304460D46D8
:109AA000DDE90A0111F026F902460B462046294657
:109AB00010F06EFF424604460D464B46DDE90E01AE
:109AC00011F018F902460B462046294610F05EFFB9
:109AD000DDE9202311F038FA5246CDE904015B4656
:109AE000C7E90201DDE9100111F004F9DDE90A23FB
:109AF00004460D46DDE9060111F0FCF802460B466E
:109B00002046294610F042FFDDE9082311F0F2F863
:109B100004460D46DDE9060102460B4611F0EAF85F
:109B200042464B4611F0E6F802460B4620462946CF
:109B300010F02EFFDDE91E2304460D46404649463F
:109B400011F0D8F802460B462046294610F01EFFB9
:109B5000DDE91C2304460D46DDE90A0111F0CAF8CF
:109B600002460B462046294610F012FFDDE90E237F
:109B700004460D465046594611F0BCF802460B46C5
:109B80002046294610F002FFDDE9202311F0DCF920
:109B90000D460446DDE90201C7E9044502460B46CD
:109BA00011F0A8F880468946DDE9040102460B461B
:109BB00011F0A0F802460B464046494610F0E8FE78
:109BC0002B468046894622462946204611F092F8C7
:109BD00002460B464046494610F0DAFED6E9062317
:109BE00082468B46D6E9000110F0D2FED6E90A2360
:109BF00010F0CEFECDE90601D6E90C23DDE9020125
:109C000011F078F8D6E90E2380468946DDE9040193
:109C100011F070F802460B464046494610F0B8FE77
:109C2000D6E91023804689462046294611F062F87D
:109C300002460B464046494610F0AAFE02460B4635
:109C400010F0A6FE02460B46DDE9060110F09EFE6E
:109C5000D6E9302311F078F90B46024659465046B2
:109C600010F096FE0DF0F4FB319D0123C5E90001D3
:109C70006AE500BF2DE9F04FD1E90089D0E9304510
:109C800099B006460F4642464B4620462946CDE946
:109C9000044511F02FF8D6E90045CDE90A01DDE9C8
:109CA0000A2340464946CDE90C4511F023F8DDE989
:109CB0000C2311F01FF8D6E90CAB04460D464246C2
:109CC0004B464046494611F015F852465B4611F0A6
:109CD00011F802460B465046594611F00BF8024661
:109CE0000B462046294610F051FED6E912230446C1
:109CF0000D46DDE90A0110F0FDFF02460B46204645
:109D0000294610F043FECDE90001DDE904010246D9
:109D10000B4610F03DFECDE91201DDE9122340466D
:109D2000494610F0E7FFD7E9024522462B46CDE928
:109D30000245CDE9060110F0DDFFD6E9022310F05F
:109D4000D9FFDDE90C2304460D464046494610F094
:109D5000D1FF02460B465046594610F0CBFF024653
:109D60000B46DDE9000110F013FE02460B462046CB
:109D7000294610F00DFE4246CDE900014B46404613
:109D8000494610F005FED6E90E45CDE90801024628
:109D90000B46DDE90201CDE90E4510F0ABFF0246AE
:109DA0000B465046594610F0A5FFDDE90E2310F092
:109DB000A1FF02460B46DDE9000110F0E7FDD6E900
:109DC000142304460D46DDE90A0110F093FF024614
:109DD0000B462046294610F0D9FD524604460D4652
:109DE0005B464046494610F085FFD7E90489CDE936
:109DF000008942464B46D6E90689CDE91001DDE9E6
:109E00000601CDE9068910F075FFD6E9042310F0AC
:109E100071FFDDE9062380468946DDE9100110F077
:109E200069FF02460B462046294610F0B1FD024666
:109E30000B464046494610F0ABFDD6E91089DDE9F6
:109E4000002304460D46DDE90801CDE9088910F03C
:109E500051FF02460B465046594610F04BFFDDE9D4
:109E6000082310F047FF02460B462046294610F013
:109E70008DFDD6E9162304460D46DDE90A0110F0F2
:109E800039FF02460B462046294610F07FFD00228E
:109E900080468946964BDDE9040110F02BFFD6E998
:109EA0000AABCDE91401D6E9242310F023FF524672
:109EB00004460D465B46DDE9100110F01BFF02462B
:109EC0000B464046494610F063FD02460B462046CD
:109ED000294610F05DFDDDE9022304460D46DDE96B
:109EE000040110F007FF0022CDE90A01804BDDE9F3
:109EF0000C0110F0FFFE02460B46DDE90C0110F0EC
:109F0000F9FE02460B462046294610F03FFDD6E9F1
:109F1000182304460D46DDE90A0110F0EBFE024667
:109F20000B462046294610F031FD00228046894626
:109F3000704BDDE9040110F0DDFED6E92A23CDE9FE
:109F4000100110F0D7FEDDE9022304460D46DDE9DD
:109F50000C0110F0CFFE02460B46DDE90E0110F0B9
:109F6000C9FE02460B464046494610F011FD024626
:109F70000B462046294610F00BFD002204460D46F4
:109F80005C4BDDE90C0110F0B5FEDDE90023CDE905
:109F90001601DDE9040110F0ADFECDE90401DDE9B3
:109FA0001623DDE9060110F0A5FE02460B46204609
:109FB000294610F0EBFCD6E91E2304460D46DDE9E8
:109FC000040110F097FE02460B462046294610F089
:109FD000DDFCD6E92C2380468946DDE9100110F02E
:109FE00089FEDDE9002304460D46DDE90C0110F091
:109FF00081FE02460B46DDE9080110F07BFE0246B9
:10A000000B464046494610F0C3FC02460B4620462C
:10A01000294610F0BDFCDDE90A2380468946DDE9CA
:10A02000020110F067FE02460B46DDE9060110F062
:10A0300061FEDDE9162304460D465046594610F0F0
:10A0400059FE02460B464046494610F09FFC024628
:10A050000B462046294610F09BFC04460D46DDE9E0
:10A06000020102460B4610F045FE02460B46DDE9B2
:10A070000E0110F03FFE02460B46DDE90E0110F026
:10A0800039FE02460B462046294610F07FFCD6E9F1
:10A090001A2304460D46DDE90A0110F02BFE0246A4
:10A0A0000B462046294610F071FCDDE9022380466C
:10A0B0008946DDE9120110F01DFE02460B46DDE97E
:10A0C000000110F017FED6E9082310F013FEDDE9B9
:10A0D000062304460D46DDE9020110F00BFE0246A0
:10A0E0000B46DDE90E0110F005FE024604E000BF5C
:10A0F0000000D03F0000E03F0B464046494610F0CC
:10A1000047FC02460B462046294610F041FC044617
:10A110000D46DDE9020102460B4610F039FC02460D
:10A120000B46DDE9000110F0E5FD02460B46DDE9D6
:10A130000E0110F0DFFD02460B46DDE9080110F0CC
:10A14000D9FD02460B462046294610F01FFCD6E9F1
:10A150001C2304460D46DDE90A0110F0CBFD024642
:10A160000B462046294610F011FCD6E926238046EE
:10A170008946DDE9140110F0BDFDDDE90E2304463A
:10A180000D46DDE9020110F0B5FD02460B465046D2
:10A19000594610F0AFFD02460B464046494610F0C6
:10A1A000F7FB02460B462046294610F0F1FB002241
:10A1B00004460D46644BDDE9060110F09BFD0246A6
:10A1C0000B46DDE9060110F095FD02460B462046E0
:10A1D000294610F0DBFBD6E9202304460D46DDE9D5
:10A1E000040110F087FD02460B462046294610F078
:10A1F000CDFBD6E92E2380468946DDE9100110F01B
:10A2000079FDDDE9002304460D46DDE9060110F085
:10A2100071FD02460B46DDE9080110F06BFD0246B8
:10A220000B464046494610F0B3FB02460B4620461B
:10A23000294610F0ADFBDDE9042380468946DDE9BF
:10A24000000110F057FD02460B465046594610F0EB
:10A2500051FD002204460D463C4BDDE9060110F09D
:10A2600049FD02460B465046594610F043FD024652
:10A270000B464046494610F089FB02460B462046F5
:10A28000294610F085FB04460D46DDE90001024633
:10A290000B4610F02FFD02460B46DDE9080110F0D9
:10A2A00029FD02460B46DDE9080110F023FD0246B8
:10A2B0000B462046294610F069FBD6E922230446C6
:10A2C0000D46DDE9040110F015FD02460B4620465F
:10A2D000294610F05BFBD6E9282304460D46DDE94C
:10A2E000140110F007FD524606460F465B46DDE9B5
:10A2F000000110F0FFFC02460B46DDE9080110F0FA
:10A30000F9FC02460B462046294610F041FB024666
:10A310000B463046394610F03BFB002204460D4602
:10A3200050465946084B10F0E5FC02460B46504695
:10A33000594610F0DFFC02460B462046294610F035
:10A3400025FB19B0BDE8F08F0000D03F0000E03FD2
:10A35000F0B5044687B0B4F98C50B4F98E20B4F946
:10A36000903012041B0403A82D040F46009501929F
:10A37000029323F09DFE039AB4F88800D4F8AC1041
:10A38000009C019BA41A049A9E1A029B059A9D1A8E
:10A390006A463B468DE85000029523F08BFB07B0E0
:10A3A000F0BD00BF2DE9F04186B00E466946FFF7CB
:10A3B000CFFF4FF000080024002503AF5DF8080030
:10A3C00011F064F84FF05E5111F0B4F8014647F80F
:10A3D000080011F0AFF810F039FC02460B46204699
:10A3E000294610F0D5FA08F10408B8F10C0F04461C
:10A3F0000D46E3D10DF02CF84FF0000804460D4651
:10A4000057F8080010F022FC22462B4610F09CFD65
:10A4100010F032FF014656F8080010F083FF46F8AE
:10A42000080008F10408B8F10C0FE9D1736D01338D
:10A43000736522F02BFCF06706B0BDE8F08100BF29
:10A440002DE9F0439DB055230022044606A804934D
:10A4500005930292039222F02FFB06A80AA922F08C
:10A4600005FF0EAA0AA802A922F0E2FD06A90EA87D
:10A4700012AA22F0DDFD149B139D434803F596724A
:10A48000159B149203F5967305F596751593139520
:10A49000FEF7C4FD11F014FA2D183B48149E1395D5
:10A4A000FEF7BCFD11F00CFA36183748159D1496CE
:10A4B000FEF7B4FD11F004FA13A92D1820461595E6
:10A4C000FEF78CFED4E930010022304B10F0A2FEE2
:10A4D00028B929A1D1E900011DB0BDE8F0832046CB
:10A4E00016A96A46FFF700F80028F2D0DDE9160148
:10A4F00023A3D3E9002310F049FA21A3D3E90023D1
:10A5000004460D46DDE9180110F040FA1CA3D3E91A
:10A51000002380468946DDE91A0110F037FA224609
:10A5200006460F462B462046294610F0E3FB4246DE
:10A5300004460D464B464046494610F0DBFB0246BA
:10A540000B462046294610F023FA324604460D46B3
:10A550003B463046394610F0CDFB02460B462046BE
:10A56000294610F015FA0CF073FF0022084B10F08A
:10A57000EBFCB1E7AFF300805555555555D5744008
:10A580000000000000C0724000002841000034407C
:10A590000000084070B5E8260F4C104800213246F4
:10A5A00013F0F4FE4FF4004547F6FF730C48A4F88F
:10A5B000C23000213246A4F8D030A4F8DE30A4F82E
:10A5C000BC50A4F8CA50A4F8D85013F0DFFE002302
:10A5D000C4F8B43070BD00BF60390020903700204F
:10A5E000083B00202DE9F04F036B064FE1B0804699
:10A5F000C7F8A03122F09CF9044628B1002061B0D0
:10A60000BDE8F08F6039002022F066FB0428F5D009
:10A61000404607F59071FFF7C5FED7F87421D7F8CB
:10A6200070319A4280F27A81D8F83030D90500F141
:10A630006381D8F8A010D7F81421A74B8A1A82EAB0
:10A64000E271A1EBE271B1F5A02F00F37181D8F8AE
:10A65000A400D3F81811411A81EAE170A0EBE1706F
:10A66000B0F5A02F00F36481D8F8A840D3F81C01FE
:10A67000201A80EAE074A4EBE074B4F5A02F13DC98
:10A680000912121201FB01F1001202FB021200FB7F
:10A690000020B0F5403F80F24881D3F8B820002A6E
:10A6A000ACDD013AC3F8B820D7F894318A4C012BBD
:10A6B00000F0AE81D7F80831002B03DD864A013B5C
:10A6C000C2F80831DFF82CB200220023DBE93001A8
:10A6D00010F0A0FDB0B1E822594626A813F054FDB1
:10A6E000584614A9FEF77AFD58460BF1C8010EAA88
:10A6F000FEF7FAFE002840F02381584626A9E822FA
:10A7000013F042FDD8F83030DA0504D5D8F87430AB
:10A71000DB0500F17781714D0024CDE90845704DCE
:10A72000704B0022D5E9300110F056FD00287FF46F
:10A7300065AF284605F1C8010EAAFEF7D5FE002830
:10A740003FF45CAFD8F8AC00634D10F06DFA0246F0
:10A750000B465FA1D1E9000110F0F6FB604BD3E995
:10A760003223CDE900235E4BD3E93423CDE9042322
:10A770005B4BD3E93623CDE90C01CDE90223D7F8B1
:10A78000A810DDE9002307EBC104C4E90023DDE9DB
:10A790000423C4E90223DDE9022303311429C4E9B7
:10A7A000042300F3C081C5F8A8104B4CCDF82880D5
:10A7B0000FCC1AAD0FC594E80300A4F110073E4674
:10A7C00085E803000FCE20AD07950FC594E8030080
:10A7D00085E803004FF0020A1AAE07EBCA090DF133
